{
  "contractName": "WorksRegistry",
  "abi": [
    {
      "anonymous": false,
      "inputs": [
        {
          "indexed": true,
          "internalType": "bytes32",
          "name": "workHash",
          "type": "bytes32"
        },
        {
          "indexed": true,
          "internalType": "address",
          "name": "buyer",
          "type": "address"
        },
        {
          "indexed": false,
          "internalType": "uint256",
          "name": "price",
          "type": "uint256"
        }
      ],
      "name": "WorkPurchased",
      "type": "event"
    },
    {
      "anonymous": false,
      "inputs": [
        {
          "indexed": true,
          "internalType": "bytes32",
          "name": "workHash",
          "type": "bytes32"
        },
        {
          "indexed": true,
          "internalType": "address",
          "name": "author",
          "type": "address"
        },
        {
          "indexed": false,
          "internalType": "enum WorksRegistry.LicenseType",
          "name": "licenseType",
          "type": "uint8"
        },
        {
          "indexed": false,
          "internalType": "string",
          "name": "metadataJson",
          "type": "string"
        }
      ],
      "name": "WorkRegistered",
      "type": "event"
    },
    {
      "inputs": [
        {
          "internalType": "address",
          "name": "",
          "type": "address"
        },
        {
          "internalType": "uint256",
          "name": "",
          "type": "uint256"
        }
      ],
      "name": "authorWorks",
      "outputs": [
        {
          "internalType": "bytes32",
          "name": "",
          "type": "bytes32"
        }
      ],
      "stateMutability": "view",
      "type": "function",
      "constant": true
    },
    {
      "inputs": [
        {
          "internalType": "bytes32",
          "name": "",
          "type": "bytes32"
        },
        {
          "internalType": "uint256",
          "name": "",
          "type": "uint256"
        }
      ],
      "name": "purchases",
      "outputs": [
        {
          "internalType": "address",
          "name": "buyer",
          "type": "address"
        },
        {
          "internalType": "uint256",
          "name": "timestamp",
          "type": "uint256"
        },
        {
          "internalType": "uint256",
          "name": "price",
          "type": "uint256"
        }
      ],
      "stateMutability": "view",
      "type": "function",
      "constant": true
    },
    {
      "inputs": [
        {
          "internalType": "bytes32",
          "name": "",
          "type": "bytes32"
        }
      ],
      "name": "works",
      "outputs": [
        {
          "internalType": "bytes32",
          "name": "workHash",
          "type": "bytes32"
        },
        {
          "internalType": "enum WorksRegistry.LicenseType",
          "name": "licenseType",
          "type": "uint8"
        },
        {
          "internalType": "address",
          "name": "author",
          "type": "address"
        },
        {
          "internalType": "uint256",
          "name": "timestamp",
          "type": "uint256"
        },
        {
          "internalType": "string",
          "name": "metadataJson",
          "type": "string"
        }
      ],
      "stateMutability": "view",
      "type": "function",
      "constant": true
    },
    {
      "inputs": [
        {
          "internalType": "bytes32",
          "name": "_workHash",
          "type": "bytes32"
        },
        {
          "internalType": "string",
          "name": "_metadataJson",
          "type": "string"
        },
        {
          "internalType": "enum WorksRegistry.LicenseType",
          "name": "_licenseType",
          "type": "uint8"
        }
      ],
      "name": "registerWork",
      "outputs": [],
      "stateMutability": "nonpayable",
      "type": "function"
    },
    {
      "inputs": [
        {
          "internalType": "bytes32",
          "name": "_workHash",
          "type": "bytes32"
        },
        {
          "internalType": "uint256",
          "name": "_price",
          "type": "uint256"
        }
      ],
      "name": "purchaseWork",
      "outputs": [],
      "stateMutability": "nonpayable",
      "type": "function"
    },
    {
      "inputs": [
        {
          "internalType": "bytes32",
          "name": "_workHash",
          "type": "bytes32"
        }
      ],
      "name": "getWork",
      "outputs": [
        {
          "components": [
            {
              "internalType": "bytes32",
              "name": "workHash",
              "type": "bytes32"
            },
            {
              "internalType": "enum WorksRegistry.LicenseType",
              "name": "licenseType",
              "type": "uint8"
            },
            {
              "internalType": "address",
              "name": "author",
              "type": "address"
            },
            {
              "internalType": "uint256",
              "name": "timestamp",
              "type": "uint256"
            },
            {
              "internalType": "string",
              "name": "metadataJson",
              "type": "string"
            }
          ],
          "internalType": "struct WorksRegistry.Work",
          "name": "",
          "type": "tuple"
        }
      ],
      "stateMutability": "view",
      "type": "function",
      "constant": true
    },
    {
      "inputs": [
        {
          "internalType": "bytes32",
          "name": "_workHash",
          "type": "bytes32"
        }
      ],
      "name": "getPurchaseHistory",
      "outputs": [
        {
          "components": [
            {
              "internalType": "address",
              "name": "buyer",
              "type": "address"
            },
            {
              "internalType": "uint256",
              "name": "timestamp",
              "type": "uint256"
            },
            {
              "internalType": "uint256",
              "name": "price",
              "type": "uint256"
            }
          ],
          "internalType": "struct WorksRegistry.Purchase[]",
          "name": "",
          "type": "tuple[]"
        }
      ],
      "stateMutability": "view",
      "type": "function",
      "constant": true
    },
    {
      "inputs": [
        {
          "internalType": "address",
          "name": "_author",
          "type": "address"
        }
      ],
      "name": "getWorksByAuthor",
      "outputs": [
        {
          "internalType": "bytes32[]",
          "name": "",
          "type": "bytes32[]"
        }
      ],
      "stateMutability": "view",
      "type": "function",
      "constant": true
    },
    {
      "inputs": [
        {
          "internalType": "bytes32",
          "name": "_workHash",
          "type": "bytes32"
        }
      ],
      "name": "getMetadataJson",
      "outputs": [
        {
          "internalType": "string",
          "name": "",
          "type": "string"
        }
      ],
      "stateMutability": "view",
      "type": "function",
      "constant": true
    },
    {
      "inputs": [],
      "name": "getAllWorks",
      "outputs": [
        {
          "components": [
            {
              "internalType": "bytes32",
              "name": "workHash",
              "type": "bytes32"
            },
            {
              "internalType": "enum WorksRegistry.LicenseType",
              "name": "licenseType",
              "type": "uint8"
            },
            {
              "internalType": "address",
              "name": "author",
              "type": "address"
            },
            {
              "internalType": "uint256",
              "name": "timestamp",
              "type": "uint256"
            },
            {
              "internalType": "string",
              "name": "metadataJson",
              "type": "string"
            }
          ],
          "internalType": "struct WorksRegistry.Work[]",
          "name": "",
          "type": "tuple[]"
        }
      ],
      "stateMutability": "view",
      "type": "function",
      "constant": true
    }
  ],
  "bytecode": "0x608060405234801561001057600080fd5b50611ea0806100206000396000f3fe608060405234801561001057600080fd5b506004361061009e5760003560e01c806362c431621161006657806362c43162146101715780636acf908a146101a1578063790b85ab146101d157806379ed8687146101ef5780639ea4695d1461021f5761009e565b80632ae1116d146100a35780632d530ad8146100bf57806330266537146100db57806337e5f34b1461010b57806356da50371461013d575b600080fd5b6100bd60048036038101906100b89190611430565b61024f565b005b6100d960048036038101906100d491906113c4565b61040f565b005b6100f560048036038101906100f0919061139b565b6106a7565b6040516101029190611a55565b60405180910390f35b61012560048036038101906101209190611430565b6108af565b6040516101349392919061188f565b60405180910390f35b6101576004803603810190610152919061139b565b610916565b604051610168959493929190611947565b60405180910390f35b61018b6004803603810190610186919061139b565b610a01565b60405161019891906119d3565b60405180910390f35b6101bb60048036038101906101b6919061135f565b610b01565b6040516101c8919061192c565b60405180910390f35b6101d9610b32565b6040516101e6919061190a565b60405180910390f35b61020960048036038101906102049190611336565b611002565b60405161021691906118c6565b60405180910390f35b6102396004803603810190610234919061139b565b611099565b60405161024691906118e8565b60405180910390f35b60008060008481526020019081526020016000206002015414156102a8576040517f08c379a000000000000000000000000000000000000000000000000000000000815260040161029f90611a15565b60405180910390fd5b60008110156102ec576040517f08c379a00000000000000000000000000000000000000000000000000000000081526004016102e390611a35565b60405180910390fd5b600060405180606001604052803373ffffffffffffffffffffffffffffffffffffffff1681526020014281526020018381525090506001600084815260200190815260200160002081908060018154018082558091505060019003906000526020600020906003020160009091909190915060008201518160000160006101000a81548173ffffffffffffffffffffffffffffffffffffffff021916908373ffffffffffffffffffffffffffffffffffffffff160217905550602082015181600101556040820151816002015550503373ffffffffffffffffffffffffffffffffffffffff16837f3e22aff2b5f944ffdcef3d19f341476e73dc50b02f4e823a8f0e09c5cfe32f90846040516104029190611a77565b60405180910390a3505050565b60008060008681526020019081526020016000206002015414610467576040517f08c379a000000000000000000000000000000000000000000000000000000000815260040161045e906119f5565b60405180910390fd5b60008060008681526020019081526020016000209050848160000181905550818160010160006101000a81548160ff021916908360018111156104d3577f4e487b7100000000000000000000000000000000000000000000000000000000600052602160045260246000fd5b0217905550338160010160016101000a81548173ffffffffffffffffffffffffffffffffffffffff021916908373ffffffffffffffffffffffffffffffffffffffff1602179055504281600201819055508383826003019190610537929190611175565b506000600260003373ffffffffffffffffffffffffffffffffffffffff1673ffffffffffffffffffffffffffffffffffffffff1681526020019081526020016000208054905014156105e7576003339080600181540180825580915050600190039060005260206000200160009091909190916101000a81548173ffffffffffffffffffffffffffffffffffffffff021916908373ffffffffffffffffffffffffffffffffffffffff1602179055505b600260003373ffffffffffffffffffffffffffffffffffffffff1673ffffffffffffffffffffffffffffffffffffffff1681526020019081526020016000208590806001815401808255809150506001900390600052602060002001600090919091909150553373ffffffffffffffffffffffffffffffffffffffff16857fb047ccd0748808893abbe599bfcc75504e1675ae9e9862077a14dd994531df31848787604051610698939291906119a1565b60405180910390a35050505050565b6106af6111fb565b6000806000848152602001908152602001600020600201541415610708576040517f08c379a00000000000000000000000000000000000000000000000000000000081526004016106ff90611a15565b60405180910390fd5b6000808381526020019081526020016000206040518060a0016040529081600082015481526020016001820160009054906101000a900460ff16600181111561077a577f4e487b7100000000000000000000000000000000000000000000000000000000600052602160045260246000fd5b60018111156107b2577f4e487b7100000000000000000000000000000000000000000000000000000000600052602160045260246000fd5b81526020016001820160019054906101000a900473ffffffffffffffffffffffffffffffffffffffff1673ffffffffffffffffffffffffffffffffffffffff1673ffffffffffffffffffffffffffffffffffffffff1681526020016002820154815260200160038201805461082690611c6d565b80601f016020809104026020016040519081016040528092919081815260200182805461085290611c6d565b801561089f5780601f106108745761010080835404028352916020019161089f565b820191906000526020600020905b81548152906001019060200180831161088257829003601f168201915b5050505050815250509050919050565b600160205281600052604060002081815481106108cb57600080fd5b9060005260206000209060030201600091509150508060000160009054906101000a900473ffffffffffffffffffffffffffffffffffffffff16908060010154908060020154905083565b60006020528060005260406000206000915090508060000154908060010160009054906101000a900460ff16908060010160019054906101000a900473ffffffffffffffffffffffffffffffffffffffff169080600201549080600301805461097e90611c6d565b80601f01602080910402602001604051908101604052809291908181526020018280546109aa90611c6d565b80156109f75780601f106109cc576101008083540402835291602001916109f7565b820191906000526020600020905b8154815290600101906020018083116109da57829003601f168201915b5050505050905085565b60606000806000848152602001908152602001600020600201541415610a5c576040517f08c379a0000000000000000000000000000000000000000000000000000000008152600401610a5390611a15565b60405180910390fd5b6000808381526020019081526020016000206003018054610a7c90611c6d565b80601f0160208091040260200160405190810160405280929190818152602001828054610aa890611c6d565b8015610af55780601f10610aca57610100808354040283529160200191610af5565b820191906000526020600020905b815481529060010190602001808311610ad857829003601f168201915b50505050509050919050565b60026020528160005260406000208181548110610b1d57600080fd5b90600052602060002001600091509150505481565b60606000805b600380549050811015610c0c576002600060038381548110610b83577f4e487b7100000000000000000000000000000000000000000000000000000000600052603260045260246000fd5b9060005260206000200160009054906101000a900473ffffffffffffffffffffffffffffffffffffffff1673ffffffffffffffffffffffffffffffffffffffff1673ffffffffffffffffffffffffffffffffffffffff1681526020019081526020016000208054905082610bf79190611b6a565b91508080610c0490611c9f565b915050610b38565b5060008167ffffffffffffffff811115610c4f577f4e487b7100000000000000000000000000000000000000000000000000000000600052604160045260246000fd5b604051908082528060200260200182016040528015610c8857816020015b610c756111fb565b815260200190600190039081610c6d5790505b5090506000805b600380549050811015610ff85760006002600060038481548110610cdc577f4e487b7100000000000000000000000000000000000000000000000000000000600052603260045260246000fd5b9060005260206000200160009054906101000a900473ffffffffffffffffffffffffffffffffffffffff1673ffffffffffffffffffffffffffffffffffffffff1673ffffffffffffffffffffffffffffffffffffffff168152602001908152602001600020805480602002602001604051908101604052809291908181526020018280548015610d8b57602002820191906000526020600020905b815481526020019060010190808311610d77575b5050505050905060005b8151811015610fe357600080838381518110610dda577f4e487b7100000000000000000000000000000000000000000000000000000000600052603260045260246000fd5b602002602001015181526020019081526020016000206040518060a0016040529081600082015481526020016001820160009054906101000a900460ff166001811115610e50577f4e487b7100000000000000000000000000000000000000000000000000000000600052602160045260246000fd5b6001811115610e88577f4e487b7100000000000000000000000000000000000000000000000000000000600052602160045260246000fd5b81526020016001820160019054906101000a900473ffffffffffffffffffffffffffffffffffffffff1673ffffffffffffffffffffffffffffffffffffffff1673ffffffffffffffffffffffffffffffffffffffff16815260200160028201548152602001600382018054610efc90611c6d565b80601f0160208091040260200160405190810160405280929190818152602001828054610f2890611c6d565b8015610f755780601f10610f4a57610100808354040283529160200191610f75565b820191906000526020600020905b815481529060010190602001808311610f5857829003601f168201915b505050505081525050858581518110610fb7577f4e487b7100000000000000000000000000000000000000000000000000000000600052603260045260246000fd5b60200260200101819052508380610fcd90611c9f565b9450508080610fdb90611c9f565b915050610d95565b50508080610ff090611c9f565b915050610c8f565b5081935050505090565b6060600260008373ffffffffffffffffffffffffffffffffffffffff1673ffffffffffffffffffffffffffffffffffffffff16815260200190815260200160002080548060200260200160405190810160405280929190818152602001828054801561108d57602002820191906000526020600020905b815481526020019060010190808311611079575b50505050509050919050565b606060016000838152602001908152602001600020805480602002602001604051908101604052809291908181526020016000905b8282101561116a57838290600052602060002090600302016040518060600160405290816000820160009054906101000a900473ffffffffffffffffffffffffffffffffffffffff1673ffffffffffffffffffffffffffffffffffffffff1673ffffffffffffffffffffffffffffffffffffffff16815260200160018201548152602001600282015481525050815260200190600101906110ce565b505050509050919050565b82805461118190611c6d565b90600052602060002090601f0160209004810192826111a357600085556111ea565b82601f106111bc57803560ff19168380011785556111ea565b828001600101855582156111ea579182015b828111156111e95782358255916020019190600101906111ce565b5b5090506111f7919061127b565b5090565b6040518060a00160405280600080191681526020016000600181111561124a577f4e487b7100000000000000000000000000000000000000000000000000000000600052602160045260246000fd5b8152602001600073ffffffffffffffffffffffffffffffffffffffff16815260200160008152602001606081525090565b5b8082111561129457600081600090555060010161127c565b5090565b6000813590506112a781611e15565b92915050565b6000813590506112bc81611e2c565b92915050565b6000813590506112d181611e43565b92915050565b60008083601f8401126112e957600080fd5b8235905067ffffffffffffffff81111561130257600080fd5b60208301915083600182028301111561131a57600080fd5b9250929050565b60008135905061133081611e53565b92915050565b60006020828403121561134857600080fd5b600061135684828501611298565b91505092915050565b6000806040838503121561137257600080fd5b600061138085828601611298565b925050602061139185828601611321565b9150509250929050565b6000602082840312156113ad57600080fd5b60006113bb848285016112ad565b91505092915050565b600080600080606085870312156113da57600080fd5b60006113e8878288016112ad565b945050602085013567ffffffffffffffff81111561140557600080fd5b611411878288016112d7565b93509350506040611424878288016112c2565b91505092959194509250565b6000806040838503121561144357600080fd5b6000611451858286016112ad565b925050602061146285828601611321565b9150509250929050565b600061147883836115ff565b60208301905092915050565b60006114908383611743565b60608301905092915050565b60006114a88383611785565b905092915050565b6114b981611bc0565b82525050565b6114c881611bc0565b82525050565b60006114d982611ac2565b6114e38185611b15565b93506114ee83611a92565b8060005b8381101561151f578151611506888261146c565b975061151183611aee565b9250506001810190506114f2565b5085935050505092915050565b600061153782611acd565b6115418185611b26565b935061154c83611aa2565b8060005b8381101561157d5781516115648882611484565b975061156f83611afb565b925050600181019050611550565b5085935050505092915050565b600061159582611ad8565b61159f8185611b37565b9350836020820285016115b185611ab2565b8060005b858110156115ed57848403895281516115ce858261149c565b94506115d983611b08565b925060208a019950506001810190506115b5565b50829750879550505050505092915050565b61160881611bd2565b82525050565b61161781611bd2565b82525050565b61162681611c19565b82525050565b61163581611c19565b82525050565b60006116478385611b59565b9350611654838584611c2b565b61165d83611d75565b840190509392505050565b600061167382611ae3565b61167d8185611b48565b935061168d818560208601611c3a565b61169681611d75565b840191505092915050565b60006116ac82611ae3565b6116b68185611b59565b93506116c6818560208601611c3a565b6116cf81611d75565b840191505092915050565b60006116e7601783611b59565b91506116f282611d86565b602082019050919050565b600061170a601283611b59565b915061171582611daf565b602082019050919050565b600061172d601883611b59565b915061173882611dd8565b602082019050919050565b60608201600082015161175960008501826114b0565b50602082015161176c6020850182611871565b50604082015161177f6040850182611871565b50505050565b600060a08301600083015161179d60008601826115ff565b5060208301516117b0602086018261161d565b5060408301516117c360408601826114b0565b5060608301516117d66060860182611871565b50608083015184820360808601526117ee8282611668565b9150508091505092915050565b600060a08301600083015161181360008601826115ff565b506020830151611826602086018261161d565b50604083015161183960408601826114b0565b50606083015161184c6060860182611871565b50608083015184820360808601526118648282611668565b9150508091505092915050565b61187a81611c0f565b82525050565b61188981611c0f565b82525050565b60006060820190506118a460008301866114bf565b6118b16020830185611880565b6118be6040830184611880565b949350505050565b600060208201905081810360008301526118e081846114ce565b905092915050565b60006020820190508181036000830152611902818461152c565b905092915050565b60006020820190508181036000830152611924818461158a565b905092915050565b6000602082019050611941600083018461160e565b92915050565b600060a08201905061195c600083018861160e565b611969602083018761162c565b61197660408301866114bf565b6119836060830185611880565b818103608083015261199581846116a1565b90509695505050505050565b60006040820190506119b6600083018661162c565b81810360208301526119c981848661163b565b9050949350505050565b600060208201905081810360008301526119ed81846116a1565b905092915050565b60006020820190508181036000830152611a0e816116da565b9050919050565b60006020820190508181036000830152611a2e816116fd565b9050919050565b60006020820190508181036000830152611a4e81611720565b9050919050565b60006020820190508181036000830152611a6f81846117fb565b905092915050565b6000602082019050611a8c6000830184611880565b92915050565b6000819050602082019050919050565b6000819050602082019050919050565b6000819050602082019050919050565b600081519050919050565b600081519050919050565b600081519050919050565b600081519050919050565b6000602082019050919050565b6000602082019050919050565b6000602082019050919050565b600082825260208201905092915050565b600082825260208201905092915050565b600082825260208201905092915050565b600082825260208201905092915050565b600082825260208201905092915050565b6000611b7582611c0f565b9150611b8083611c0f565b9250827fffffffffffffffffffffffffffffffffffffffffffffffffffffffffffffffff03821115611bb557611bb4611ce8565b5b828201905092915050565b6000611bcb82611bef565b9050919050565b6000819050919050565b6000819050611bea82611e01565b919050565b600073ffffffffffffffffffffffffffffffffffffffff82169050919050565b6000819050919050565b6000611c2482611bdc565b9050919050565b82818337600083830152505050565b60005b83811015611c58578082015181840152602081019050611c3d565b83811115611c67576000848401525b50505050565b60006002820490506001821680611c8557607f821691505b60208210811415611c9957611c98611d46565b5b50919050565b6000611caa82611c0f565b91507fffffffffffffffffffffffffffffffffffffffffffffffffffffffffffffffff821415611cdd57611cdc611ce8565b5b600182019050919050565b7f4e487b7100000000000000000000000000000000000000000000000000000000600052601160045260246000fd5b7f4e487b7100000000000000000000000000000000000000000000000000000000600052602160045260246000fd5b7f4e487b7100000000000000000000000000000000000000000000000000000000600052602260045260246000fd5b6000601f19601f8301169050919050565b7f576f726b20616c72656164792072656769737465726564000000000000000000600082015250565b7f576f726b20646f65736e27742065786973740000000000000000000000000000600082015250565b7f50726963652063616e6e6f74206265206e656761746976650000000000000000600082015250565b60028110611e1257611e11611d17565b5b50565b611e1e81611bc0565b8114611e2957600080fd5b50565b611e3581611bd2565b8114611e4057600080fd5b50565b60028110611e5057600080fd5b50565b611e5c81611c0f565b8114611e6757600080fd5b5056fea2646970667358221220b456a266fcd16b1a90a2d93ef1ba86362b8b36bc6243e39a2eca3e25485a469f64736f6c63430008040033",
  "immutableReferences": {},
  "source": "// SPDX-License-Identifier: MIT\npragma solidity ^0.8.4;\n\ncontract WorksRegistry {\n\n    enum LicenseType { OPEN, CLOSED }\n\n    struct Work {\n        bytes32 workHash;\n        LicenseType licenseType;\n        address author;\n        uint256 timestamp;\n        string metadataJson;\n    }\n\n    struct Purchase {\n        address buyer;\n        uint256 timestamp;\n        uint256 price;\n    }\n\n    mapping(bytes32 => Work) public works;\n    mapping(bytes32 => Purchase[]) public purchases;\n    mapping(address => bytes32[]) public authorWorks;\n    address[] private authors;\n\n    event WorkRegistered(bytes32 indexed workHash, address indexed author, LicenseType licenseType, string metadataJson);\n    event WorkPurchased(bytes32 indexed workHash, address indexed buyer, uint256 price);\n\n    function registerWork(bytes32 _workHash, string calldata _metadataJson, LicenseType _licenseType) external {\n        require(works[_workHash].timestamp == 0, \"Work already registered\");\n\n        Work storage newWork = works[_workHash];\n        newWork.workHash = _workHash;\n        newWork.licenseType = _licenseType;\n        newWork.author = msg.sender;\n        newWork.timestamp = block.timestamp;\n        newWork.metadataJson = _metadataJson;\n\n        // Add to author's works if not already there\n        if (authorWorks[msg.sender].length == 0) {\n            authors.push(msg.sender);\n        }\n        authorWorks[msg.sender].push(_workHash);\n\n        emit WorkRegistered(_workHash, msg.sender, _licenseType, _metadataJson);\n    }\n\n    function purchaseWork(bytes32 _workHash, uint256 _price) external {\n        require(works[_workHash].timestamp != 0, \"Work doesn't exist\");\n        require(_price >= 0, \"Price cannot be negative\");\n\n        Purchase memory newPurchase = Purchase({\n            buyer: msg.sender,\n            timestamp: block.timestamp,\n            price: _price\n        });\n\n        purchases[_workHash].push(newPurchase);\n\n        emit WorkPurchased(_workHash, msg.sender, _price);\n    }\n\n    function getWork(bytes32 _workHash) external view returns (Work memory) {\n        require(works[_workHash].timestamp != 0, \"Work doesn't exist\");\n        return works[_workHash];\n    }\n\n    function getPurchaseHistory(bytes32 _workHash) external view returns (Purchase[] memory) {\n        return purchases[_workHash];\n    }\n\n    function getWorksByAuthor(address _author) external view returns (bytes32[] memory) {\n        return authorWorks[_author];\n    }\n\n    //       JSON   \n    function getMetadataJson(bytes32 _workHash) external view returns (string memory) {\n        require(works[_workHash].timestamp != 0, \"Work doesn't exist\");\n        return works[_workHash].metadataJson;\n    }\n\n    // ,          \n    function getAllWorks() external view returns (Work[] memory) {\n        uint256 totalWorksCount = 0;\n        for (uint256 i = 0; i < authors.length; i++) {\n            totalWorksCount += authorWorks[authors[i]].length;\n        }\n\n        Work[] memory allWorks = new Work[](totalWorksCount);\n        uint256 currentIndex = 0;\n\n        for (uint256 i = 0; i < authors.length; i++) {\n            bytes32[] memory worksByAuthor = authorWorks[authors[i]];\n            for (uint256 j = 0; j < worksByAuthor.length; j++) {\n                allWorks[currentIndex] = works[worksByAuthor[j]];\n                currentIndex++;\n            }\n        }\n\n        return allWorks;\n    }\n}\n",
  "sourcePath": "/Users/maximzabolotny/Desktop/edu/university/diplom/project-code/contracts/contracts/WorksRegistry.sol",
  "compiler": {
    "name": "solc",
    "version": "0.8.4+commit.c7e474f2.Emscripten.clang"
  },
  "schemaVersion": "3.4.16",
  "updatedAt": "2023-11-06T19:48:17.368Z",
  "networkType": "ethereum",
  "devdoc": {
    "kind": "dev",
    "methods": {},
    "version": 1
  },
  "userdoc": {
    "kind": "user",
    "methods": {},
    "version": 1
  }
}